:020000040800F2
:100000000080012071260008C1260008C1260008D2
:10001000C1260008C1260008C12600080000000013
:10002000000000000000000000000000C1260008E1
:10003000C126000800000000C1260008F1240008C5
:10004000C1260008C1260008C1260008C1260008F4
:10005000C1260008C1260008C1260008C1260008E4
:10006000C1260008C1260008C1260008C1260008D4
:10007000C1260008C1260008C1260008C1260008C4
:10008000C1260008C1260008C1260008C1260008B4
:10009000C1260008C1260008C1260008C1260008A4
:1000A000C1260008C1260008C1260008C126000894
:1000B000C1260008C1260008C1260008C126000884
:1000C000C1260008C1260008C1260008C126000874
:1000D000C1260008FD240008C1260008C12600082A
:1000E000C1260008C1260008C1260008C126000854
:1000F000C1260008C1260008C1260008C126000844
:10010000C1260008C1260008C1260008C126000833
:10011000C1260008C1260008C1260008C126000823
:10012000C1260008C1260008C1260008C126000813
:10013000C1260008C1260008C1260008C126000803
:10014000C1260008C1260008C1260008C1260008F3
:10015000C1260008C1260008C1260008C1260008E3
:10016000C1260008C1260008C1260008C1260008D3
:10017000C1260008C1260008C126000800000000B2
:08018000C1260008C126000899
:1001880010B5054C237833B9044B13B10448AFF3C9
:1001980000800123237010BD6800002000000000CB
:1001A8000C2700080C4B43B10C480D4910B5AFF3B0
:1001B80000800C48036823B910BD0A48036833B9A6
:1001C8007047094B002BF7D0BDE810401847064B85
:1001D800002BF5D0184700BF000000000C270008CE
:1001E8006C000020680000200000000053B94AB9E4
:1001F800002908BF00281CBF4FF0FF314FF0FF3027
:1002080000F07AB9ADF1080C6DE904CE00F006F8FB
:10021800DDF804E0DDE9022304B070472DE9F0477A
:100228008C460D460446089E002B51D18A4217463B
:100238006DD9B2FA82FEBEF1000F0BD0CEF1200CC0
:1002480001FA0EF520FA0CFC02FA0EF74CEA050C3E
:1002580000FA0EF44FEA174A250CBCFBFAF81FFA0D
:1002680087F90AFB18CC45EA0C4508FB09F3AB42B1
:100278000AD9ED1908F1FF3280F02381AB4240F230
:100288002081A8F102083D44ED1AA4B2B5FBFAF0AA
:100298000AFB105544EA054400FB09F9A14509D9B0
:1002A800E41900F1FF3380F00A81A14540F207818B
:1002B80002383C44A4EB090440EA08400021002E1F
:1002C80061D024FA0EF4002334607360BDE8F0872F
:1002D8008B4207D9002E54D0002186E82100084619
:1002E800BDE8F087B3FA83F1002940F08E80AB4275
:1002F80002D3824200F2FA80841A65EB03050120DA
:10030800AC46002E3FD086E81010BDE8F08712B941
:100318000127B7FBF2F7B7FA87FEBEF1000F34D119
:10032800EB1B3A0C1FFA87FC0121B3FBF2F8250CF2
:1003380002FB183345EA03450CFB08F3AB4207D927
:10034800ED1908F1FF3002D2AB4200F2D1808046AD
:10035800ED1AA3B2B5FBF2F002FB105543EA0544CF
:100368000CFB00FCA44507D9E41900F1FF3302D2C5
:10037800A44500F2B8801846A4EB0C0440EA0840F3
:100388009DE731463046BDE8F087CEF1200405FAF6
:100398000EF307FA0EF720FA04F83A0C25FA04F4DB
:1003A80048EA0308B4FBF2F14FEA184502FB11448E
:1003B8001FFA87FC45EA044501FB0CF3AB4200FA3F
:1003C8000EF409D9ED1901F1FF3080F08A80AB42B3
:1003D80040F2878002393D44EB1A1FFA88F5B3FBD7
:1003E800F2F002FB103345EA034500FB0CF3AB4285
:1003F80007D9ED1900F1FF386FD2AB426DD9023839
:100408003D44EB1A40EA01418FE7C1F1200722FA87
:1004180007F88B4005FA01F448EA030320FA07FEBF
:100428004FEA134CFD404EEA040EB5FBFCF94FEAC7
:100438001E440CFB19551FFA83F844EA054509FBCD
:1004480008F4AC4202FA01F200FA01FA08D9ED18F0
:1004580009F1FF3043D2AC4241D9A9F102091D4448
:100468002D1B1FFA8EFEB5FBFCF00CFB10554EEA57
:10047800054400FB08F8A04507D9E41800F1FF354A
:1004880029D2A04527D902381C4440EA0940A4EBE8
:100498000804A0FB02894C45C6464D4615D312D028
:1004A80056B1BAEB0E0364EB050404FA07F7CB4028
:1004B8001F43CC40376074600021BDE8F0871846C0
:1004C800F8E69046E0E6C245EAD2B8EB020E69EBE0
:1004D80003050138E4E72846D7E7404691E7814617
:1004E800BEE7014678E702383C4445E7084608E796
:1004F800A8F102083D442BE7704700BF10B5044639
:10050800074B1868074BA3FB0030800900F07CF804
:10051800002221464FF0FF3000F038F8002010BDCF
:1005280064000020D34D621008B5074A136843F4ED
:1005380080731360032000F017F80020FFF7DEFF38
:1005480001F08AFF002008BD00200240024A13681B
:1005580001331360704700BF84000020014B186806
:10056800704700BF84000020074AD36823F4E06383
:100578001B041B0C000200F4E060184340F0BF604D
:1005880040F40030D060704700ED00E030B4164B06
:10059800DB68C3F30223C3F10704042C28BF042437
:1005A8001D1D062D17D9033B012505FA04F4013C4E
:1005B8002140994005FA03F3013B134019430028F1
:1005C8000BDB0901C9B200F1604000F5614080F819
:1005D800001330BC70470023E6E700F00F00090164
:1005E800C9B2024B1954F4E700ED00E014ED00E045
:1005F800420900F01F00012303FA00F0014B43F801
:100608002200704700E100E00138B0F1807F0AD293
:10061800064B5860F021064A82F8231000209860A3
:1006280007221A6070470120704700BF10E000E001
:1006380000ED00E0042805D0054A136823F0040300
:1006480013607047024A136843F00403136070474D
:1006580010E000E0704708B5FFF7FCFF08BD08B5DB
:1006680090F82530DBB2022B03D00423C3630120AA
:1006780008BD0268136823F00E031360026813684C
:1006880023F001031360016C436C03F01C03012287
:1006980002FA03F34B6080F82520002380F8243009
:1006A800836B13B19847002008BD002008BD0000E7
:1006B800F0B583B000239AE04FEAD30E0EF1080E8E
:1006C80050F82E4003F00706B6000F27B74024EA7B
:1006D80007040F6907FA06F6344340F82E4095E000
:1006E80086682640CF6807FA0EF73E43866046685C
:1006F80026EA05064F68C7F300179F403E43466049
:100708004E6806F00307032F00F09B80C5682C4055
:100718008D6805FA0EF52C43C4604C6814F0805FB0
:1007280064D0544C256E45F001052566246E04F00E
:1007380001040194019C9C08A61C4F4D55F82650B5
:1007480003F00306B7000F26BE4025EA0605B0F100
:10075800904F00F08180494EB0427FD006F5806608
:10076800B0427DD006F58066B0427BD006F5806643
:10077800B04279D006F58066B04277D006F580663B
:10078800B04267D00726BE40354302343A4E46F899
:1007980024503B4C2568D44305EA04064F6817F4F7
:1007A800803F01D042EA0506354D2E606D6804EAA7
:1007B80005064F6817F4003F01D042EA0506304DA0
:1007C8006E60AD6804EA05064F6817F4801F01D013
:1007D80042EA05062A4DAE60ED682C404E6816F4D4
:1007E800001F01D042EA0504254AD46001330A6893
:1007F80032FA03F43CD001259D402A40F6D04C68DB
:10080800022C3FF459AF122C3FF456AF06684FEA5A
:10081800430E032404FA0EF4E44326404F6807F01D
:10082800030707FA0EF73E4306604E68771E012F4E
:100838007FF656AF112E3FF453AF122E7FF460AF00
:100848004EE7C76A27EA0505C6F3C0069E402E4351
:10085800C6625BE7062696E7002694E7012692E73C
:10086800022690E703268EE704268CE705268AE70A
:1008780003B0F0BD00100240000001400004004831
:10088800000401400AB98162704781617047000025
:10089800024B186800F4C060704700BF0070004049
:1008A800B0F5007F0FD0204B1B6803F4C063B3F58D
:1008B800806F37D01C4A136823F4C06343F4806305
:1008C800136000207047184B1B6803F4C063B3F52E
:1008D800007F23D0144A136823F4C06343F40073E1
:1008E8001360124B1B6802F1467202F55B3202F28A
:1008F8008322A2FB03239A0C322303FB02F300E0BA
:10090800013B23B1084A526912F4806FF8D1064BB3
:100918005B6913F4806F03D0032070470020704791
:1009280000207047002070470070004064000020DD
:1009380030B583B00546204B9B6D13F0805F0BD01C
:10094800FFF7A6FFB0F5007F17D0802D1FD82DD058
:10095800702D2DD000211BE0174CA36D43F0805360
:10096800A365A36D03F080530193019BFFF790FFEC
:10097800A36D23F08053A365E4E7802D03D9A02D50
:1009880003D9022104E0002102E0012100E0032153
:100998000A4A136823F007030B431360136803F034
:1009A8000703994206D0012003B030BD0221EFE7CA
:1009B8000121EDE70020F7E7001002400020024087
:1009C8003B4B9B6813F00C0F1AD0394B9B6803F014
:1009D8000C030C2B0ED0364B9B6803F00C03042B36
:1009E8002FD0334B9B6803F00C03082B2CD000202E
:1009F800014618E02E4BDB6803F00303012BEAD114
:100A08002B4B1B6813F0080F14D1294BD3F89430E3
:100A1800C3F30323274A52F82310254B9B6813F08E
:100A28000C0F0CD00020224A936803F00C030C2B07
:100A38000DD070471E4B1B68C3F30313EAE7084643
:100A4800F1E71D480021EEE71C480021EBE71346BB
:100A5800D26802F00302DB68C3F302130133022AEF
:100A68000AD0032A1AD0B1FBF3F3114AD068C0F3B5
:100A7800062000FB03F008E00F48B0FBF3F30C4A34
:100A8800D068C0F3062000FB03F0094BDB68C3F312
:100A9800416301335B00B0FBF3F0CAE70748B0FBE2
:100AA800F3F3034AD068C0F3062000FB03F0ECE739
:100AB80000100240282700080024F40000127A00E1
:100AC800002800F0A88270B582B00446036813F0CD
:100AD800100F3FD0974B9B6813F00C0F40F092809B
:100AE800944B1B6813F0020F03D08369002B00F0AE
:100AF8009982206A8F4B1B6813F0080F62D08D4BC8
:100B08001B6803F0F003834263D2FFF711FF00284C
:100B180040F08A82874B1A6842F008021A601A6805
:100B280022F0F002216A0A431A605A6822F47F42CE
:100B3800E16942EA01225A60FFF742FF7D4B9B6858
:100B4800C3F303137C4AD35CD8407C4B1860002065
:100B5800FFF7D4FC236813F0010F00F0A180754B58
:100B68009B6803F00C03082B00F09180714B9B6885
:100B780003F00C030C2B00F083806368B3F5803F0F
:100B880000F0B580B3F5A02F00F0B780694B1A6864
:100B980022F480321A601A6822F480221A6063688C
:100BA800002B00F0B780FFF7D9FC0546614B1B68A6
:100BB80013F4003F74D1FFF7D1FC401B6428F5D92A
:100BC800032038E25B4BD3F894301B0903F0F003A1
:100BD80099E7584B1A6842F008021A601A6822F01E
:100BE800F002216A0A431A605A6822F47F42E169D6
:100BF80042EA01225A60206AFFF79AFE00289BD039
:100C0800012018E2836933B34A4A136843F00103A9
:100C18001360FFF7A3FC0546464B1B6813F0020F51
:100C280006D1FFF79BFC401B0228F5D9032002E2FE
:100C3800404B1A6842F008021A601A6822F0F00263
:100C4800216A0A431A605A6822F47F42E16942EA3B
:100C580001225A607EE7374A136823F001031360C4
:100C6800FFF77CFC0546334B1B6813F0020F3FF47B
:100C780071AFFFF773FC401B0228F4D90320DAE1B7
:100C88002C4BDB6803F00303032B7FF476AF294B6F
:100C98001B6813F4003F03D06368002B00F0C68183
:100CA800236813F0020F62D0224B9B6803F00C03F9
:100CB800042B4BD01F4B9B6803F00C030C2B3FD02D
:100CC800E368002B79D01B4A136843F480731360E0
:100CD800FFF744FC0546174B1B6813F4806F63D17C
:100CE800FFF73CFC401B0228F5D90320A3E1114A79
:100CF800136843F48033136051E703F18043A3F58D
:100D08003C331A6842F480221A601A6842F480322E
:100D18001A6044E7FFF722FC0546064B1B6813F4EC
:100D2800003FBDD0FFF71AFC401B6428F5D903200B
:100D380081E100BF0010024058270008640000202D
:100D4800B64BDB6803F00303022BB9D1B34B1B6826
:100D580013F4806F03D0E368002B00F06981AF4A79
:100D6800536823F0F853216943EA01635360236809
:100D780013F0080F4CD063699BB3A84AD2F894309B
:100D880043F00103C2F89430FFF7E8FB0546A34B94
:100D9800D3F8943013F0020F3AD1FFF7DFFB401B72
:100DA8000228F4D9032046E19C4A536823F0F853FB
:100DB800216943EA01635360D9E7984A136823F429
:100DC80080731360FFF7CAFB0546944B1B6813F446
:100DD800806FCCD0FFF7C2FB401B0228F5D9032057
:100DE80029E18E4AD2F8943023F00103C2F89430F6
:100DF800FFF7B4FB0546894BD3F8943013F0020F84
:100E080006D0FFF7ABFB401B0228F4D9032012E100
:100E1800236813F0040F7BD0804B9B6D13F0805F29
:100E280036D17E4B9A6D42F080529A659B6D03F0E5
:100E380080530193019B0125794B1B6813F4807F34
:100E480028D0A368012B39D0052B3FD0734BD3F89A
:100E5800902022F00102C3F89020D3F8902022F0CD
:100E68000402C3F89020A368002B3DD0FFF776FB5F
:100E780006466A4BD3F8903013F0020F46D1FFF7BD
:100E88006DFB801B41F288339842F2D90320D2E0EF
:100E98000025D1E7624A136843F480731360FFF7B3
:100EA8005DFB06465E4B1B6813F4807FC9D1FFF7D4
:100EB80055FB801B0228F5D90320BCE0574AD2F81D
:100EC800903043F00103C2F89030CCE7534BD3F88D
:100ED800902042F00402C3F89020D3F8902042F00A
:100EE8000102C3F89020BEE7FFF738FB06464B4BDC
:100EF800D3F8903013F0020F08D0FFF72FFB801BB8
:100F080041F288339842F2D9032094E0002D35D17C
:100F1800A36A002B00F08E80404A926802F00C020F
:100F28000C2A00F08A80022B2ED03C4B1A6822F043
:100F380080721A601B6813F0006F09D1374B1B6869
:100F480013F0005F04D1354AD36823F00303D3605C
:100F5800324AD36823F0887323F48033D360FFF7D1
:100F6800FDFA04462D4B1B6813F0007F51D0FFF7A4
:100F7800F5FA001B0228F5D903205CE0274A936D97
:100F880023F080539365C3E7244A136823F08073E2
:100F98001360FFF7E3FA0546204B1B6813F0007F48
:100FA80006D0FFF7DBFA401B0228F5D9032042E000
:100FB800236B5A1E636B1B0243EA0213A26B1209CE
:100FC80043EA4243E26A1343E26B5208013A43EAB6
:100FD8004253226C5208013A43EA42630F4AD360F3
:100FE800136843F080731360D36843F08073D36051
:100FF800FFF7B4FA0446094B1B6813F0007F06D1CB
:10100800FFF7ACFA001B0228F5D9032013E00020F3
:1010180011E000200FE00120704700BF00100240DF
:1010280000700040012006E0012004E0012002E0F9
:10103800012000E0002002B070BD0120FBE700BFE6
:10104800002800F0998070B504464D4B1B6803F0EA
:1010580007038B420CD24A4A136823F007030B4359
:101068001360136803F00703994201D0012070BD93
:101078000D46236813F0010F39D06368032B09D09C
:10108800022B26D063BB3F4A126812F0020F06D12A
:10109800012070BD3B4A126812F0007F6ED03949BA
:1010A8008A6822F0030213438B60FFF757FA06465B
:1010B800344B9B6803F00C036268B3EB820F16D0C5
:1010C800FFF74CFA801B41F288339842F0D903208D
:1010D80070BD2C4A126812F4003FE0D1012070BDA7
:1010E800284A126812F4806FD9D1012070BD236894
:1010F80013F0020F06D0234A936823F0F003A16887
:101108000B4393601E4B1B6803F007039D420CD2F0
:101118001B4A136823F007032B431360136803F07B
:1011280007039D4201D0012070BD236813F0040F0E
:1011380006D0144A936823F4E063E1680B43936094
:10114800236813F0080F07D00E4A936823F46053FE
:10115800216943EAC1039360FFF732FC094B9B689E
:10116800C3F30313084AD35CD840084B1860002027
:10117800FFF7C4F9002070BD01207047012070BD41
:101188000020024000100240582700086400002098
:10119800014B1868704700BF6400002008B5FFF7CE
:1011A800F7FF044B9B68C3F30223034AD35CD84080
:1011B80008BD00BF001002406827000808B5FFF707
:1011C800E7FF044B9B68C3F3C223034AD35CD840B0
:1011D80008BD00BF0010024068270008F8B55E4B44
:1011E800DB6813F0030F19D05B4BDB6803F00303D4
:1011F8000268934204D00124002C48D02046F8BD50
:10120800002A42D0544BDB68C3F30213013342680F
:10121800934201D00124EFE70024EDE70368022B95
:1012280018D0032B1DD0012B0DD00124002CE3D1A5
:10123800494EF26822F073024568013D43EA0513FE
:101248001343F360D8E7444A126812F0020F14D02F
:101258000024EBE7404A126812F4806F0FD0002494
:10126800E4E73D4A126812F4003F0AD13A4A12688C
:1012780012F4802F07D00024D8E70124D6E70124F0
:10128800D4E70024D2E70124D0E70124B4E70F46CD
:101298000546314A136823F080631360FFF75EF94F
:1012A80006462D4B1B6813F0006F05D0FFF756F963
:1012B800801B0228F5D90324002C9FD14FBB264957
:1012C8000B6923F41F3323F44073A868EA681209F2
:1012D800520442EA002213430B611F4A136843F089
:1012E80080631360FFF73AF906461B4B1B6813F03F
:1012F800006F05D1FFF732F9801B0228F5D90324C6
:10130800002C7FF47BAF144A1369A9690B4313615E
:1013180074E7012F0FD01048026922F0C06222F44E
:10132800FE42A9686B695B08013B5B0643EA01233F
:1013380013430361D1E70848026922F4C00222F48A
:10134800FE42A9682B695B08013B5B0543EA012360
:1013580013430361C1E700BF00100240F8B5554BC5
:10136800DB6813F0030F19D0524BDB6803F003035B
:101378000268934204D00124002C48D02046F8BDCE
:10138800002A42D04B4BDB68C3F302130133426897
:10139800934201D00124EFE70024EDE70368022B14
:1013A80018D0032B1DD0012B0DD00124002CE3D124
:1013B800404EF26822F073024568013D43EA051386
:1013C8001343F360D8E73B4A126812F0020F14D0B7
:1013D8000024EBE7374A126812F4806F0FD000241C
:1013E800E4E7344A126812F4003F0AD1314A12681D
:1013F80012F4802F07D00024D8E70124D6E701246F
:10140800D4E70024D2E70124D0E70124B4E70F464B
:101418000546284A136823F080531360FFF79EF8A7
:101428000646244B1B6813F0005F05D0FFF796F8BB
:10143800801B0228F5D90324002C9FD14FBB1D49DE
:101448004B6923F41F3323F44073A868EA68120930
:10145800520442EA002213434B61164A136843F0D0
:1014680080531360FFF77AF80646124B1B6813F097
:10147800005F05D1FFF772F8801B0228F5D9032415
:10148800002C7FF47BAF0B4A536969690B435361A6
:1014980074E70848426922F0C06222F4FE42A96853
:1014A8002B695B08013B5B0643EA01231343436155
:1014B800D3E700BF001002402DE9F04182B0044696
:1014C800036813F4006F2FD0436EB3F5800F23D059
:1014D80014D9B3F5000F18D0B3F5400F22D1002668
:1014E800002E40F09680624AD2F8883023F44003F8
:1014F800616E0B43C2F88830374617E093B9002174
:101508000430FFF76BFE0646EAE7594AD36843F40E
:101518008033D3600026E3E700212030FFF71EFF69
:101528000646DDE70126DBE700273E46236813F47D
:10153800805F15D0A36EB3F1807F79D06BD9B3F1FA
:10154800007F6FD0B3F1407F79D1002E79D1484A1E
:10155800D2F8883023F04073A16E0B43C2F888306C
:10156800236813F4003F00F08C80414B9B6D13F00F
:10157800805F68D13E4B9A6D42F080529A659B6DB0
:1015880003F080530193019B4FF00108394A136817
:1015980043F480731360FEF7E1FF0546354B1B6883
:1015A80013F4807F05D1FEF7D9FF401B0228F5D937
:1015B8000326002E60D12E4BD3F8903013F44073DD
:1015C80016D0D4F88420934212D0294AD2F8903009
:1015D80023F44073D2F8901041F48031C2F890108F
:1015E800D2F8901021F48031C2F89010C2F89030EF
:1015F80013F0010F2AD1002E40F041811C4AD2F885
:10160800903023F44073D4F884100B43C2F8903020
:1016180033E037468AE793B90021201DFFF7DEFD46
:10162800064692E7124AD36843F48033D3608CE7C6
:10163800002104F12000FFF791FE064685E7012608
:1016480083E737468CE74FF000089FE7FEF786FFF1
:101658000546074BD3F8903013F0020FCBD1FEF7B5
:101668007DFF401B41F288339842F2D90326C2E736
:1016780000100240007000403746B8F1000F40F0FB
:101688000081236813F0010F08D09D4AD2F88830F2
:1016980023F00303A16B0B43C2F88830236813F0CF
:1016A800020F08D0964AD2F8883023F00C03E16B79
:1016B8000B43C2F88830236813F0040F08D0904A0F
:1016C800D2F8883023F03003216C0B43C2F88830FD
:1016D800236813F0080F08D0894AD2F8883023F01D
:1016E800C003616C0B43C2F88830236813F0100FF5
:1016F80008D0834AD2F8883023F44073A16C0B4396
:10170800C2F88830236813F0200F08D07C4AD2F83A
:10171800883023F44063E16C0B43C2F888302368B7
:1017280013F4007F08D0764AD2F8883023F4402397
:10173800E16D0B43C2F88830236813F4806F08D03A
:101748006F4AD2F8883023F44013216E0B43C2F855
:101758008830236813F0400F08D0694AD2F88830DF
:1017680023F44053216D0B43C2F88830236813F0EB
:10177800800F08D0624AD2F8883023F44043616D64
:101788000B43C2F88830236813F4807F08D05C4A82
:10179800D2F8883023F44033A16D0B43C2F8883067
:1017A800236813F4005F0FD0554AD2F8883023F02D
:1017B8004063E16E0B43C2F88830E36EB3F1006F0B
:1017C80065D0B3F1806F67D0236813F4002F0FD072
:1017D8004B4AD2F8883023F04063216F0B43C2F89C
:1017E8008830236FB3F1006F5ED0B3F1806F60D0A3
:1017F800236813F4802F0FD0414AD2F8883023F0A1
:101808004063616F0B43C2F88830636FB3F1006FB8
:1018180057D0B3F1806F59D0236813F4804F0FD09D
:10182800374AD2F8883023F04053A16F0B43C2F8EF
:101838008830A36FB3F1805F50D0B3F1005F55D00B
:10184800236813F4004F08D02D4AD2F8883023F0CB
:101858008043E16F0B43C2F88830236813F4803F5C
:1018680009D0274AD2F8883023F00043D4F88010F2
:101878000B43C2F88830384602B0BDE8F0813746DD
:10188800FBE61F4A936D23F080539365F9E6D3680E
:1018980043F48013D36097E70121201DFFF79EFCD6
:1018A800002891D007468FE7D36843F48013D360AC
:1018B8009EE70121201DFFF791FC002898D00746DC
:1018C80096E7D36843F48013D360A5E70121201D70
:1018D800FFF784FC00289FD007469DE70221201DC2
:1018E800FFF77CFC0028ABD00746A9E7022104F1EA
:1018F8002000FFF733FD0028A2D00746A0E700BF6D
:10190800001002400268136823F4907313600268A1
:10191800936823F001039360202380F8723000233A
:1019280003667047704708B501680A6822F04002EC
:101938000A60202280F8712000224266FFF7F2FF39
:1019480008BD704738B504460268D36911689068C5
:1019580013F00F050CD113F0200F09D011F0200F50
:1019680006D0236E002B00F093802046984738BDA0
:10197800002D6FD010F0010502D111F4907F69D0CD
:1019880013F0010F07D011F4807F04D001201062FA
:10199800626F0243626713F0020F07D035B1226805
:1019A80002201062626F42F00402626713F0040FB3
:1019B80007D035B1226804201062626F42F002023B
:1019C800626713F0080F09D011F0200F00D12DB174
:1019D800226808201062626F02436267626F002A01
:1019E80056D013F0200F06D011F0200F03D0236E2D
:1019F8000BB120469847636F13F0080F04D1236892
:101A08009B6813F0400F1FD02046FFF77BFF236829
:101A18009A6812F0400F13D09A6822F040029A6038
:101A2800E36E4BB11D4A9A63E06EFEF718FE78B379
:101A3800E06E836B984738BD2046FFF782FF38BDBC
:101A48002046FFF77EFF38BD2046FFF77AFF0023C8
:101A5800636738BD13F4801F02D010F4800F0AD1D9
:101A680013F0800F0ED011F0800F0BD0636E7BB196
:101A78002046984738BD4FF480131362204600F083
:101A880014FC38BD13F0400F02D011F0400F00D104
:101A980038BD2046FFF747FFFAE700BFA91A00083C
:101AA80008B5806A0023A0F85A30A0F85230FFF732
:101AB80048FF08BD2DE9784B044601688368026930
:101AC800134342691343C269134308689F4A02409B
:101AD80013430B602268536823F44053E1680B43B7
:101AE8005360A36922689A498A4201D0216A0B434C
:101AF800916821F430610B4393602368954A9342BF
:101B080027D0954A934238D0944A93424ED0944A6B
:101B1800934261D0934A934274D08D4A934200F025
:101B28008A8010258A4A934200F0AA80E369B3F5B7
:101B3800004F00F02C81082D00F2B781DFE815F086
:101B480076018D019701B501A201B501B501B50175
:101B5800AC0102F55842D2F8882002F00302032AA9
:101B680009D8DFE802F0020481060125DAE7042536
:101B7800D8E70825D6E71025D4E702F5E632D2F8EB
:101B8800882002F00C020C2A0ED8DFE802F0070DBC
:101B98000D0D090D0D0D6F0D0D0D0B000025C1E785
:101BA8000425BFE70825BDE71025BBE702F5E432A9
:101BB800D2F8882002F03002102A09D005D9202A4C
:101BC80056D0302A06D10825ACE71AB90025A9E76E
:101BD8000425A7E71025A5E702F5E232D2F8882008
:101BE80002F0C002402A09D005D9802A42D0C02A72
:101BF80006D1082596E71AB9002593E7042591E749
:101C080010258FE702F5E032D2F8882002F44072FE
:101C1800B2F5807F0BD007D9B2F5007F2CD0B2F592
:101C2800407F06D108257DE71AB900257AE7042503
:101C380078E7102576E702F5C832D2F8882002F452
:101C48004062B2F5806F0BD007D9B2F5006F15D09E
:101C5800B2F5406F06D1082564E71AB9002561E797
:101C680004255FE710255DE702255BE7022559E7B4
:101C7800022557E7022555E7022553E7022551E7D4
:101C8800082D11D8DFE805F0081005100C10101009
:101C98001300354800260DE0FFF780FA002609E01A
:101CA800FEF78EFE002605E00020012602E04FF434
:101CB80000400026002800F0CA80626802EB420358
:101CC8009842C0F0F580B0EB023F00F2F380082D97
:101CD8005AD8DFE805F005591F59295959594F00B5
:101CE800FFF75CFA00234FEA10694FEA00286268A0
:101CF800500818EB000B49F1000C58466146FEF7F6
:101D080075FAA0F54072194B9A4200F2D580236803
:101D1800D8609CE05508002315480021401941F17E
:101D28000001FEF763FAECE7FEF74AFE00234FEAEC
:101D380010694FEA00286268500818EB000B49F157
:101D4800000C58466146FEF751FADAE7F369FFEFEF
:101D58000080004000380140004400400048004036
:101D6800004C0040005000400024F400FFFC0F002D
:101D7800000024F450080021002310F5000041F170
:101D88000001FEF733FABCE701260020B9E7082D69
:101D980049D8DFE805F0051E2948344848483F007F
:101DA800FFF7FCF96268530803EB4003B3FBF2F357
:101DB8009BB20026A3F110014FF6EF7291427DD835
:101DC8009AB222F00F02C3F3420313432268D3608E
:101DD8003DE0FFF7F3F96268530803EB4003B3FBF8
:101DE800F2F39BB20026E5E76268530803F1F47347
:101DF80003F59043B3FBF2F39BB20026DAE7FEF754
:101E0800DFFD6268530803EB4003B3FBF2F39BB2B8
:101E18000026CFE76268530803F58033B3FBF2F37B
:101E28009BB20026C6E701260023C3E7FFF7B6F9F1
:101E3800636800EB5300B0FBF3F080B20026A0F11A
:101E480010024FF6EF739A423AD82368D8600023FD
:101E5800236663663046BDE8788BFFF7AFF96368A1
:101E680000EB5300B0FBF3F080B20026E7E76368AD
:101E7800580800F5740000F51050B0FBF3F080B27C
:101E88000026DCE7FEF79CFD636800EB5300B0FB1F
:101E9800F3F080B20026D2E76368580800F50040E6
:101EA800B0FBF3F080B20026C9E701260020C6E7A0
:101EB8000126CCE70126CAE70126C8E70126C6E7BE
:101EC8000126C4E7436A13F0010F06D0026853687D
:101ED80023F40033816A0B435360436A13F0020F03
:101EE80006D00268536823F48033C16A0B435360F9
:101EF800436A13F0040F06D00268536823F4802362
:101F0800016B0B435360436A13F0080F06D0026855
:101F1800536823F40043416B0B435360436A13F047
:101F2800100F06D00268936823F48053816B0B432B
:101F38009360436A13F0200F06D00268936823F475
:101F48000053C16B0B439360436A13F0400F0AD0F0
:101F58000268536823F48013016C0B435360036CCD
:101F6800B3F5801F0BD0436A13F0800F06D00268C8
:101F7800536823F40023816C0B4353607047026855
:101F8800536823F4C003416C0B435360EBE72DE91E
:101F9800F04105460F4616469846069C2B68DB69B5
:101FA80037EA03030CBF01230023B3421ED1B4F167
:101FB800FF3FF3D02CB1FEF7D1FAA0EB0800844222
:101FC800ECD22A68136823F4D07313602A689368E4
:101FD80023F001039360202385F8713085F872306F
:101FE800002385F870300320BDE8F0810020BDE8AB
:101FF800F0812DE9F04182B01E4690F87130DBB2D5
:10200800202B04D00223184602B0BDE8F081044614
:102018000D46904600294ED0002A4ED090F87030D8
:10202800012B01D10223EEE7012380F87030002351
:102038004367212380F87130FEF790FA0746A4F829
:102048005080A4F852800AE023682A781A8501355E
:10205800B4F852309BB2013B9BB2A4F85230B4F8AA
:1020680052309BB2ABB100963B46002280212046FD
:10207800FFF78DFF18BBA368B3F5805FE4D1236930
:10208800002BE1D1226835F8023BC3F3080313851E
:10209800DEE700963B46002240212046FFF777FF07
:1020A800034608B10323AEE7202284F871200022FA
:1020B80084F87020A7E70123A5E70123A3E70323FA
:1020C800A1E72DE9F04182B01E4690F87230DBB2EC
:1020D800202B03D0022002B0BDE8F08104460D4653
:1020E800904600296FD0002A6FD090F87030012BED
:1020F80001D10220EFE7012380F870300023436705
:10210800222380F87230FEF729FA0746A4F858808F
:10211800A4F85A80A368B3F5805F06D0A3B92369F1
:1021280073B9FF23A4F85C3011E0236923B940F2A6
:10213800FF13A4F85C300AE0FF23A4F85C3006E043
:102148007F23A4F85C3002E0B3F1805F02D0B4F8DA
:102158005C8017E023691BB97F23A4F85C30F6E79D
:102168003F23A4F85C30F2E723689A8C5FFA88F37F
:1021780013402B700135B4F85A309BB2013B9BB227
:10218800A4F85A30B4F85A309BB2ABB100963B462B
:10219800002220212046FFF7FAFEC0B9A368B3F554
:1021A800805FE1D12369002BDED123689B8C08EA8C
:1021B800030325F8023BDEE7202384F87230002071
:1021C80084F8700087E7012085E7012083E7032072
:1021D80081E730B583B0044600234367FEF7BEF9B4
:1021E800054623681B6813F0080F0ED123681B6887
:1021F80013F0040F17D1202384F8713084F872305B
:10220800002084F8700003B030BD6FF07E43009367
:10221800034600224FF400112046FFF7B8FE0028BD
:10222800E4D00320EFE76FF07E4300932B460022B3
:102238004FF480012046FFF7AAFE0028DBD00320D8
:10224800E1E778B310B5044690F871300BB3242356
:1022580084F871302268136823F001031360204664
:10226800FFF728FC01281FD0636ABBB922685368AE
:1022780023F4904353602268936823F02A03936001
:102288002268136843F0010313602046FFF7A1FF9B
:1022980010BD80F8703000F099F9D8E72046FFF7B4
:1022A80011FEE3E70120704710BD704710B58AB0F2
:1022B800214BDA6C42F00402DA64DA6C02F00402B0
:1022C8000192019ADA6C42F08002DA64DA6C02F068
:1022D80080020292029ADA6C42F00102DA64DA6C45
:1022E80002F001020392039ADA6C42F00202DA6405
:1022F800DB6C03F002030493049B002220214FF0BF
:102308009040FEF7BFFA4FF4005305930B4B06932A
:102318000024079405A90A48FEF7CAF92023059363
:10232800012306930794089405A94FF09040FEF7FF
:10233800BFF90AB010BD00BF001002400000211014
:1023480000080048FEE7000000B5B9B00223279353
:102358004FF480722A9210222B92319332930122E9
:1023680033920A223492072235923693379327A85C
:10237800FEF7A6FB70BB0F232293032323930023AE
:10238800249325932693042122A8FEF759FE28BBFF
:102398000323009300230E930F936846FFF78CF8EE
:1023A80000BB4FF40070FEF77BFAF8B9FEF7F0FEB9
:1023B800104BA3FB00308009FEF726F90420FEF736
:1023C80039F9002211464FF0FF30FEF7DFF839B037
:1023D8005DF804FB93210848FFF7B4FFA1210648E4
:1023E800FFF7B0FFA9210448FFF7ACFFB02102486E
:1023F800FFF7A8FFD34D62107027000808B5FEF755
:1024080093F8FFF7A1FFFFF751FF00F0BFF800F0C6
:102418009DF80E4D0A2304220D492846FFF7E9FDD1
:102428000C4C0A23042221462846FFF74AFE23784B
:102438004F2B00D0FEE763784B2BFBD101222021E4
:102448004FF09040FEF71EFAF4E700BFEC000020C2
:10245800000000208800002000B583B0214B1A6ED0
:1024680042F001021A661A6E02F001020092009A06
:102478009A6D42F080529A659B6D03F080530193E8
:10248800019B0320FEF770F8002211466FF00B0045
:10249800FEF77CF8002211466FF00A00FEF776F886
:1024A800002211466FF00900FEF770F8002211466D
:1024B8006FF00400FEF76AF8002211466FF003007F
:1024C800FEF764F8002211466FF00100FEF75EF88F
:1024D800002211464FF0FF30FEF758F803B05DF8C0
:1024E80004FB00BF0010024008B5FEF72FF8FEF706
:1024F800B2F808BD08B50248FFF724FA08BD00BFC6
:10250800EC0000200F49D1F8883043F47003C1F87B
:1025180088300D4B1A6842F001021A60002098605A
:102528001A6822F0A85222F410221A604FF480523E
:10253800DA601A6822F480221A6098614FF000630A
:102548008B60704700ED00E00010024008B50C48B1
:102558000C4B03604FF41653436000238360C36041
:1025680003610C2242618361C36103624362FFF726
:1025780068FE00B908BD45210348FFF7E3FEF9E707
:10258800EC000020003801408027000808B50C48FE
:102598000C4B03604FF4E133436000238360C36056
:1025A80003610C2242618361C36103624362FFF7E6
:1025B80048FE00B908BD5A210348FFF7C3FEF9E7F2
:1025C80064010020004400408027000810B588B04E
:1025D8000368224A934204D0214A934224D008B087
:1025E80010BD204B1A6E42F480421A661B6E03F42B
:1025F80080430193019B4FF4C06303930223049328
:1026080000240594032306930723079303A94FF097
:102618009040FEF74DF8224621462520FDF7B6FFEB
:102628002520FDF7E5FFDAE70E4B9A6D42F40032FC
:102638009A659B6D03F400330293029B0C2303936A
:102648000223049300230593032306930723079388
:1026580003A94FF09040FEF72BF8C0E7003801407F
:102668000044004000100240DFF834D0002103E0AD
:102678000C4B5B58435004310B480C4B42189A42A0
:10268800F6D30B4A02E0002342F8043B094B9A4276
:10269800F9D3FFF737FF00F011F8FFF7AFFEFEE7B9
:1026A80000800120A8270008000000206800002002
:1026B80068000020DC010020FEE7000070B50D4E28
:1026C8000D4CA41BA4100025A54209D10B4E0C4C9F
:1026D80000F018F8A41BA4100025A54205D170BD70
:1026E80056F8253098470135EEE756F825309847D3
:1026F8000135F2E79827000898270008982700086E
:102708009C270008F8B500BFF8BC08BC9E46704777
:10271800F8B500BFF8BC08BC9E4670470000000032
:10272800A0860100400D0300801A060000350C0049
:1027380040420F0080841E0000093D0000127A000C
:102748000024F40000366E010048E801006CDC0249
:102758000000000000000000010203040607080949
:1027680000000000010203042E2E2F5372632F6D08
:1027780061696E2E630000002E2E2F5372632F7531
:08278800736172742E630000FE
:0827900094DAFF7F0100000054
:08279800AD0100080000000083
:0827A00089010008000000009F
:1027A80041540A0D00000000000000000000000075
:1027B8000000000000000000000000000000000011
:1027C8000000000000000000000000000000000001
:1027D80000000000000000000000000000000000F1
:1027E80000000000000000000000000000000000E1
:1027F80000000000000000000000000000000000D1
:082808000000000000093D0082
:040000050800267158
:00000001FF
