:020000040800F2
:1000000000800120452F0008952F0008952F00083B
:10001000952F0008952F0008952F0008000000007C
:10002000000000000000000000000000952F000804
:10003000952F000800000000952F0008452E0008AD
:10004000952F0008952F0008952F0008952F000880
:10005000952F0008952F0008952F0008952F000870
:10006000952F0008952F0008952F0008952F000860
:10007000952F0008952F0008952F0008952F000850
:10008000952F0008952F0008952F0008952F000840
:10009000952F0008952F0008952F0008952F000830
:1000A000952F0008952F0008952F0008952F000820
:1000B000952F0008952F0008952F0008952F000810
:1000C000952F0008952F0008952F0008952F000800
:1000D000952F0008952F0008952F0008952F0008F0
:1000E000512E0008952F0008952F0008952F000825
:1000F000952F0008952F0008952F0008952F0008D0
:10010000952F0008952F0008952F0008952F0008BF
:10011000952F0008952F0008952F0008952F0008AF
:10012000952F0008952F0008952F0008952F00089F
:10013000952F0008952F0008952F0008952F00088F
:10014000952F0008952F0008952F0008952F00087F
:10015000952F0008952F0008952F0008952F00086F
:10016000952F0008952F0008952F0008952F00085F
:10017000952F0008952F0008952F0008000000001B
:08018000952F0008952F0008DF
:1001880010B5054C237833B9044B13B10448AFF3C9
:1001980000800123237010BD08000020000000002B
:1001A800E02F00080C4B43B10C480D4910B5AFF3D4
:1001B80000800C48036823B910BD0A48036833B9A6
:1001C8007047094B002BF7D0BDE810401847064B85
:1001D800002BF5D0184700BF00000000E02F0008F2
:1001E8000C000020080000200000000053B94AB9A4
:1001F800002908BF00281CBF4FF0FF314FF0FF3027
:1002080000F07AB9ADF1080C6DE904CE00F006F8FB
:10021800DDF804E0DDE9022304B070472DE9F0477A
:100228008C460D460446089E002B51D18A4217463B
:100238006DD9B2FA82FEBEF1000F0BD0CEF1200CC0
:1002480001FA0EF520FA0CFC02FA0EF74CEA050C3E
:1002580000FA0EF44FEA174A250CBCFBFAF81FFA0D
:1002680087F90AFB18CC45EA0C4508FB09F3AB42B1
:100278000AD9ED1908F1FF3280F02381AB4240F230
:100288002081A8F102083D44ED1AA4B2B5FBFAF0AA
:100298000AFB105544EA054400FB09F9A14509D9B0
:1002A800E41900F1FF3380F00A81A14540F207818B
:1002B80002383C44A4EB090440EA08400021002E1F
:1002C80061D024FA0EF4002334607360BDE8F0872F
:1002D8008B4207D9002E54D0002186E82100084619
:1002E800BDE8F087B3FA83F1002940F08E80AB4275
:1002F80002D3824200F2FA80841A65EB03050120DA
:10030800AC46002E3FD086E81010BDE8F08712B941
:100318000127B7FBF2F7B7FA87FEBEF1000F34D119
:10032800EB1B3A0C1FFA87FC0121B3FBF2F8250CF2
:1003380002FB183345EA03450CFB08F3AB4207D927
:10034800ED1908F1FF3002D2AB4200F2D1808046AD
:10035800ED1AA3B2B5FBF2F002FB105543EA0544CF
:100368000CFB00FCA44507D9E41900F1FF3302D2C5
:10037800A44500F2B8801846A4EB0C0440EA0840F3
:100388009DE731463046BDE8F087CEF1200405FAF6
:100398000EF307FA0EF720FA04F83A0C25FA04F4DB
:1003A80048EA0308B4FBF2F14FEA184502FB11448E
:1003B8001FFA87FC45EA044501FB0CF3AB4200FA3F
:1003C8000EF409D9ED1901F1FF3080F08A80AB42B3
:1003D80040F2878002393D44EB1A1FFA88F5B3FBD7
:1003E800F2F002FB103345EA034500FB0CF3AB4285
:1003F80007D9ED1900F1FF386FD2AB426DD9023839
:100408003D44EB1A40EA01418FE7C1F1200722FA87
:1004180007F88B4005FA01F448EA030320FA07FEBF
:100428004FEA134CFD404EEA040EB5FBFCF94FEAC7
:100438001E440CFB19551FFA83F844EA054509FBCD
:1004480008F4AC4202FA01F200FA01FA08D9ED18F0
:1004580009F1FF3043D2AC4241D9A9F102091D4448
:100468002D1B1FFA8EFEB5FBFCF00CFB10554EEA57
:10047800054400FB08F8A04507D9E41800F1FF354A
:1004880029D2A04527D902381C4440EA0940A4EBE8
:100498000804A0FB02894C45C6464D4615D312D028
:1004A80056B1BAEB0E0364EB050404FA07F7CB4028
:1004B8001F43CC40376074600021BDE8F0871846C0
:1004C800F8E69046E0E6C245EAD2B8EB020E69EBE0
:1004D80003050138E4E72846D7E7404691E7814617
:1004E800BEE7014678E702383C4445E7084608E796
:1004F800A8F102083D442BE7704700BF10B5044639
:10050800074B1868074BA3FB0030800900F07CF804
:10051800002221464FF0FF3000F038F8002010BDCF
:1005280000000020D34D621008B5074A136843F451
:1005380080731360032000F017F80020FFF7DEFF38
:1005480002F034FC002008BD00200240024A136873
:1005580001331360704700BF28000020014B186862
:10056800704700BF28000020074AD36823F4E063DF
:100578001B041B0C000200F4E060184340F0BF604D
:1005880040F40030D060704700ED00E030B4164B06
:10059800DB68C3F30223C3F10704042C28BF042437
:1005A8001D1D062D17D9033B012505FA04F4013C4E
:1005B8002140994005FA03F3013B134019430028F1
:1005C8000BDB0901C9B200F1604000F5614080F819
:1005D800001330BC70470023E6E700F00F00090164
:1005E800C9B2024B1954F4E700ED00E014ED00E045
:1005F800420900F01F00012303FA00F0014B43F801
:100608002200704700E100E00138B0F1807F0AD293
:10061800064B5860F021064A82F8231000209860A3
:1006280007221A6070470120704700BF10E000E001
:1006380000ED00E0042805D0054A136823F0040300
:1006480013607047024A136843F00403136070474D
:1006580010E000E0704708B5FFF7FCFF08BD000098
:10066800F0B583B000239AE04FEAD30E0EF1080EDE
:1006780050F82E4003F00706B6000F27B74024EACB
:1006880007040F6907FA06F6344340F82E4095E050
:1006980086682640CF6807FA0EF73E4386604668AC
:1006A80026EA05064F68C7F300179F403E43466099
:1006B8004E6806F00307032F00F09B80C5682C40A6
:1006C8008D6805FA0EF52C43C4604C6814F0805F01
:1006D80064D0544C256E45F001052566246E04F05F
:1006E80001040194019C9C08A61C4F4D55F8265006
:1006F80003F00306B7000F26BE4025EA0605B0F151
:10070800904F00F08180494EB0427FD006F5806658
:10071800B0427DD006F58066B0427BD006F5806693
:10072800B04279D006F58066B04277D006F580668B
:10073800B04267D00726BE40354302343A4E46F8E9
:1007480024503B4C2568D44305EA04064F6817F447
:10075800803F01D042EA0506354D2E606D6804EAF7
:1007680005064F6817F4003F01D042EA0506304DF0
:100778006E60AD6804EA05064F6817F4801F01D063
:1007880042EA05062A4DAE60ED682C404E6816F424
:10079800001F01D042EA0504254AD46001330A68E3
:1007A80032FA03F43CD001259D402A40F6D04C682B
:1007B800022C3FF459AF122C3FF456AF06684FEAAB
:1007C800430E032404FA0EF4E44326404F6807F06E
:1007D800030707FA0EF73E4306604E68771E012F9F
:1007E8007FF656AF112E3FF453AF122E7FF460AF51
:1007F8004EE7C76A27EA0505C6F3C0069E402E43A2
:10080800C6625BE7062696E7002694E7012692E78C
:10081800022690E703268EE704268CE705268AE75A
:1008280003B0F0BD00100240000001400004004881
:10083800000401400AB981627047816170477047BE
:1008480008B5054B5B69034200D108BD024B5861EE
:10085800FFF7F5FFF9E700BF0004014003689A6954
:1008680012F0020F01D000229A6203689A6912F00E
:10087800010F03D19A6942F001029A61704770B47E
:10088800039D066870686C0D04F4806444F07F74FE
:1008980044F4583444F47F7444F0030420EA040018
:1008A800C1F3090141EA0241194329430843706031
:1008B80070BC704770B504460D46164603689B69C0
:1008C80013F0100F1CD023689A6912F0200F19D169
:1008D800B5F1FF3FF7D0FFF741FE801B854201D3FA
:1008E800002DF0D1636C43F020036364202384F867
:1008F8004130002384F8423084F84030012070BD34
:10090800002070BD1022DA6123682025DD612046B1
:10091800FFF7A4FF2268536823F0FF7323F48B3397
:1009280023F4FF7323F001035360636C43F0040363
:10093800636484F84150002384F8423084F84030DE
:10094800012070BD70B504460D46164623689B69A4
:1009580013F0020F1DD1324629462046FFF7AAFFA1
:10096800C8B9B5F1FF3FF1D0FFF7F8FD801B85420C
:1009780001D3002DEAD1636C43F020036364202384
:1009880084F84130002384F8423084F84030012054
:1009980070BD002070BD012070BDF8B505460F463A
:1009A80016461C462B689B6937EA03030CBF0123D4
:1009B8000023B34218D1B4F1FF3FF3D0FFF7CEFDC7
:1009C800069BC01A844201D3002CEBD16B6C43F018
:1009D80020036B64202385F84130002385F84230DA
:1009E80085F840300120F8BD0020F8BD70B50546F7
:1009F8000C4616462B689B6913F0200F1AD1324615
:100A080021462846FFF756FFB0B9FFF7A7FD801B20
:100A1800844201D3002CEDD16B6C43F020036B644E
:100A2800202385F84130002385F8423085F840308E
:100A3800012070BD002070BD012070BD70B5044656
:100A48000D46164623689B6913F0040F3ED13246C3
:100A580029462046FFF72EFF0146002838D1236893
:100A68009A6912F0200F13D1FFF778FD801B854299
:100A780001D3002DE6D1636C43F020036364202387
:100A880084F84130002384F840300121084670BDC5
:100A98009A6912F0040F02D0228D002AF6D1202282
:100AA800DA6121684B6823F0FF7323F48B3323F456
:100AB800FF7323F001034B600023636484F8412033
:100AC80084F8423084F840300121DFE70021DDE777
:100AD8000121DBE710B50446002847D090F84130E3
:100AE800002B48D0242384F841302268136823F06F
:100AF800010313602268636823F07063136122683E
:100B0800936823F400439360E368012B38D022688C
:100B1800A36843F404439360E368022B36D0226849
:100B2800536843F0007343F4004353602268D3686A
:100B380023F40043D3602268236961690B43A169E8
:100B480043EA0123D3602268E369216A0B431360F7
:100B58002268136843F001031360002060642023B7
:100B680084F84130206384F8420010BD4FF40073CC
:100B78004364012010BD80F8403002F049F8B1E725
:100B88002268A36843F400439360C5E723684FF4E1
:100B980000625A60C3E700002DE9F04383B090F883
:100BA8004150EDB2202D04D00223184603B0BDE811
:100BB800F08390F84040012C01D10223F5E79846D4
:100BC80017460D4604464FF0010980F84090FFF79C
:100BD800C5FC0646009019234A464FF400412046BA
:100BE800FFF7DBFE002840F08880212384F841309D
:100BF800102384F84230002363646762A4F82A80D3
:100C08006363638D9BB2FF2B0AD9FF2222853F4B7A
:100C180000934FF0807329462046FFF730FE18E016
:100C2800628D92B22285394B00934FF00073D2B295
:100C380029462046FFF723FE0BE0628D92B22285FB
:100C4800002300934FF00073D2B229462046FFF7E5
:100C580016FE638D9BB2002B32D032460A9920468D
:100C6800FFF770FE00284AD12268636A591C616246
:100C78001B789362638D9BB2013B9BB26385238D86
:100C8800013B9BB22385628D92B2002AE1D0002BF2
:100C9800DFD100960A9B002280212046FFF77DFEC7
:100CA80078BB638D9BB2FF2BC7D9FF222285002317
:100CB80000934FF0807329462046FFF7E0FDC8E710
:100CC80032460A992046FFF791FE0346D8B92268B2
:100CD8002021D1612068426822F0FF7222F48B3211
:100CE80022F4FF7222F00102426084F841100022CF
:100CF80084F8422084F8402057E7012355E7012370
:100D080053E7012351E701234FE700BF002000808C
:100D18002DE9F04383B090F84150EDB2202D04D076
:100D28000223184603B0BDE8F08390F84040012C38
:100D380001D10223F5E7984617460D4604464FF0C1
:100D4800010980F84090FFF709FC06460090192336
:100D58004A464FF400412046FFF71FFE002840F0A6
:100D68008780222384F84130102384F842300023FE
:100D780063646762A4F82A806363638D9BB2FF2B68
:100D88000AD9FF2222853E4B00934FF080732946F3
:100D98002046FFF774FD18E0628D92B22285384B29
:100DA80000934FF00073D2B229462046FFF767FD43
:100DB8000BE0628D92B22285002300934FF00073FE
:100DC800D2B229462046FFF75AFD638D9BB2002B0D
:100DD80031D032460A992046FFF730FE002849D123
:100DE800636A5A1C62622268526A1A70228D013A3A
:100DF80092B22285638D9BB2013B9BB26385638D62
:100E08009BB2002BE1D0002ADFD100960A9B8021FB
:100E18002046FFF7C2FD78BB638D9BB2FF2BC8D974
:100E2800FF222285002300934FF080732946204635
:100E3800FFF725FDC9E732460A992046FFF7D6FD98
:100E48000346D8B922682021D1612068426822F07F
:100E5800FF7222F48B3222F4FF7222F00102426008
:100E680084F84110002284F8422084F8402058E792
:100E7800012356E7012354E7012352E7012350E7F2
:100E88000024008090F841007047406C704790F84B
:100E98004130DBB2202B01D00220704790F840305F
:100EA800012B20D0012380F84030242380F84130E2
:100EB8000268136823F0010313600268136823F4BF
:100EC800805313600268136819431160026813683D
:100ED80043F001031360202380F84130002380F899
:100EE8004030184670470220704790F84130DBB216
:100EF800202B01D00220704790F84030012B1ED0E3
:100F0800012380F84030242380F8413002681368B8
:100F180023F0010313600268136823F4706343EA43
:100F2800012111600268136843F001031360202354
:100F380080F84130002380F840301846704702207E
:100F480070470000024B186800F4C060704700BF8B
:100F580000700040B0F5007F0FD0204B1B6803F4F1
:100F6800C063B3F5806F37D01C4A136823F4C0639D
:100F780043F48063136000207047184B1B6803F428
:100F8800C063B3F5007F23D0144A136823F4C06309
:100F980043F400731360124B1B6802F1467202F5AA
:100FA8005B3202F28322A2FB03239A0C322303FB57
:100FB80002F300E0013B23B1084A526912F4806F42
:100FC800F8D1064B5B6913F4806F03D00320704798
:100FD80000207047002070470020704700700040D4
:100FE8000000002030B583B00546204B9B6D13F000
:100FF800805F0BD0FFF7A6FFB0F5007F17D0802DDC
:101008001FD82DD0702D2DD000211BE0174CA36DBB
:1010180043F08053A365A36D03F080530193019BB4
:10102800FFF790FFA36D23F08053A365E4E7802DBD
:1010380003D9A02D03D9022104E0002102E00121F7
:1010480000E003210A4A136823F007030B431360E7
:10105800136803F00703994206D0012003B030BD9E
:101068000221EFE70121EDE70020F7E70010024039
:10107800002002403B4B9B6813F00C0F1AD0394BF1
:101088009B6803F00C030C2B0ED0364B9B6803F0C7
:101098000C03042B2FD0334B9B6803F00C03082B55
:1010A8002CD00020014618E02E4BDB6803F0030328
:1010B800012BEAD12B4B1B6813F0080F14D1294BD5
:1010C800D3F89430C3F30323274A52F82310254B4F
:1010D8009B6813F00C0F0CD00020224A936803F091
:1010E8000C030C2B0DD070471E4B1B68C3F3031366
:1010F800EAE70846F1E71D480021EEE71C48002111
:10110800EBE71346D26802F00302DB68C3F302136D
:101118000133022A0AD0032A1AD0B1FBF3F3114A89
:10112800D068C0F3062000FB03F008E00F48B0FBCE
:10113800F3F30C4AD068C0F3062000FB03F0094B18
:10114800DB68C3F3416301335B00B0FBF3F0CAE72C
:101158000748B0FBF3F3034AD068C0F3062000FB4E
:1011680003F0ECE700100240F82F00080024F40018
:1011780000127A00002800F0A88270B582B00446F8
:10118800036813F0100F3FD0974B9B6813F00C0FB8
:1011980040F09280944B1B6813F0020F03D08369D0
:1011A800002B00F09982206A8F4B1B6813F0080F00
:1011B80062D08D4B1B6803F0F003834263D2FFF7C4
:1011C80011FF002840F08A82874B1A6842F0080213
:1011D8001A601A6822F0F002216A0A431A605A68F3
:1011E80022F47F42E16942EA01225A60FFF742FF96
:1011F8007D4B9B68C3F303137C4AD35CD8407C4B7C
:1012080018600020FFF77AF9236813F0010F00F047
:10121800A180754B9B6803F00C03082B00F09180AC
:10122800714B9B6803F00C030C2B00F08380636800
:10123800B3F5803F00F0B580B3F5A02F00F0B7807C
:10124800694B1A6822F480321A601A6822F48022E4
:101258001A606368002B00F0B780FFF77FF9054636
:10126800614B1B6813F4003F74D1FFF777F9401BFB
:101278006428F5D9032038E25B4BD3F894301B0976
:1012880003F0F00399E7584B1A6842F008021A6015
:101298001A6822F0F002216A0A431A605A6822F496
:1012A8007F42E16942EA01225A60206AFFF79AFE0A
:1012B80000289BD0012018E2836933B34A4A136897
:1012C80043F001031360FFF749F90546464B1B68D5
:1012D80013F0020F06D1FFF741F9401B0228F5D998
:1012E800032002E2404B1A6842F008021A601A68AA
:1012F80022F0F002216A0A431A605A6822F47F42F7
:10130800E16942EA01225A607EE7374A136823F00E
:1013180001031360FFF722F90546334B1B6813F0EE
:10132800020F3FF471AFFFF719F9401B0228F4D9F7
:101338000320DAE12C4BDB6803F00303032B7FF473
:1013480076AF294B1B6813F4003F03D06368002B6A
:1013580000F0C681236813F0020F62D0224B9B680D
:1013680003F00C03042B4BD01F4B9B6803F00C03BA
:101378000C2B3FD0E368002B79D01B4A136843F449
:1013880080731360FFF7EAF80546174B1B6813F4E0
:10139800806F63D1FFF7E2F8401B0228F5D90320DC
:1013A800A3E1114A136843F48033136051E703F152
:1013B8008043A3F53C331A6842F480221A601A6805
:1013C80042F480321A6044E7FFF7C8F80546064B36
:1013D8001B6813F4003FBDD0FFF7C0F8401B64281A
:1013E800F5D9032081E100BF001002402830000831
:1013F80000000020B64BDB6803F00303022BB9D1D1
:10140800B34B1B6813F4806F03D0E368002B00F024
:101418006981AF4A536823F0F853216943EA0163AD
:101428005360236813F0080F4CD063699BB3A84A34
:10143800D2F8943043F00103C2F89430FFF78EF8E5
:101448000546A34BD3F8943013F0020F3AD1FFF7B7
:1014580085F8401B0228F4D9032046E19C4A5368CA
:1014680023F0F853216943EA01635360D9E7984AA6
:10147800136823F480731360FFF770F80546944BE4
:101488001B6813F4806FCCD0FFF768F8401B022864
:10149800F5D9032029E18E4AD2F8943023F00103CC
:1014A800C2F89430FFF75AF80546894BD3F89430C0
:1014B80013F0020F06D0FFF751F8401B0228F4D9A9
:1014C800032012E1236813F0040F7BD0804B9B6D3F
:1014D80013F0805F36D17E4B9A6D42F080529A6548
:1014E8009B6D03F080530193019B0125794B1B6889
:1014F80013F4807F28D0A368012B39D0052B3FD067
:10150800734BD3F8902022F00102C3F89020D3F84F
:10151800902022F00402C3F89020A368002B3DD04D
:10152800FFF71CF806466A4BD3F8903013F0020F09
:1015380046D1FFF713F8801B41F288339842F2D95D
:101548000320D2E00025D1E7624A136843F4807390
:101558001360FFF703F806465E4B1B6813F4807FA1
:10156800C9D1FEF7FBFF801B0228F5D90320BCE098
:10157800574AD2F8903043F00103C2F89030CCE7D4
:10158800534BD3F8902042F00402C3F89020D3F8CC
:10159800902042F00102C3F89020BEE7FEF7DEFF7C
:1015A80006464B4BD3F8903013F0020F08D0FEF7E5
:1015B800D5FF801B41F288339842F2D9032094E08A
:1015C800002D35D1A36A002B00F08E80404A926826
:1015D80002F00C020C2A00F08A80022B2ED03C4B21
:1015E8001A6822F080721A601B6813F0006F09D124
:1015F800374B1B6813F0005F04D1354AD36823F0DA
:101608000303D360324AD36823F0887323F480330A
:10161800D360FEF7A3FF04462D4B1B6813F0007F31
:1016280051D0FEF79BFF001B0228F5D903205CE090
:10163800274A936D23F080539365C3E7244A1368C0
:1016480023F080731360FEF789FF0546204B1B6863
:1016580013F0007F06D0FEF781FF401B0228F5D962
:10166800032042E0236B5A1E636B1B0243EA0213FA
:10167800A26B120943EA4243E26A1343E26B52083F
:10168800013A43EA4253226C5208013A43EA426360
:101698000F4AD360136843F080731360D36843F034
:1016A8008073D360FEF75AFF0446094B1B6813F09A
:1016B800007F06D1FEF752FF001B0228F5D9032050
:1016C80013E0002011E000200FE00120704700BF68
:1016D8000010024000700040012006E0012004E0F4
:1016E800012002E0012000E0002002B070BD0120CE
:1016F800FBE700BF002800F0998070B504464D4B09
:101708001B6803F007038B420CD24A4A136823F084
:1017180007030B431360136803F00703994201D0D2
:10172800012070BD0D46236813F0010F39D063689E
:10173800032B09D0022B26D063BB3F4A126812F054
:10174800020F06D1012070BD3B4A126812F0007FDB
:101758006ED039498A6822F0030213438B60FEF782
:10176800FDFE0646344B9B6803F00C036268B3EB3E
:10177800820F16D0FEF7F2FE801B41F288339842A2
:10178800F0D9032070BD2C4A126812F4003FE0D152
:10179800012070BD284A126812F4806FD9D1012047
:1017A80070BD236813F0020F06D0234A936823F014
:1017B800F003A1680B4393601E4B1B6803F00703FB
:1017C8009D420CD21B4A136823F007032B43136076
:1017D800136803F007039D4201D0012070BD236800
:1017E80013F0040F06D0144A936823F4E063E16809
:1017F8000B439360236813F0080F07D00E4A9368D1
:1018080023F46053216943EAC1039360FFF732FC74
:10181800094B9B68C3F30313084AD35CD840084BB1
:1018280018600020FEF76AFE002070BD0120704796
:10183800012070BD0020024000100240283000083E
:1018480000000020014B1868704700BF000000200E
:1018580008B5FFF7F7FF044B9B68C3F30223034A5D
:10186800D35CD84008BD00BF0010024038300008E3
:1018780008B5FFF7E7FF044B9B68C3F3C223034A8D
:10188800D35CD84008BD00BF0010024038300008C3
:10189800F8B55E4BDB6813F0030F19D05B4BDB68C0
:1018A80003F003030268934204D00124002C48D0BB
:1018B8002046F8BD002A42D0544BDB68C3F302131C
:1018C80001334268934201D00124EFE70024EDE799
:1018D8000368022B18D0032B1DD0012B0DD0012437
:1018E800002CE3D1494EF26822F073024568013DAD
:1018F80043EA05131343F360D8E7444A126812F029
:10190800020F14D00024EBE7404A126812F4806FEB
:101918000FD00024E4E73D4A126812F4003F0AD1D0
:101928003A4A126812F4802F07D00024D8E701241D
:10193800D6E70124D4E70024D2E70124D0E7012424
:10194800B4E70F460546314A136823F080631360F5
:10195800FEF704FE06462D4B1B6813F0006F05D0FA
:10196800FEF7FCFD801B0228F5D90324002C9FD12B
:101978004FBB26490B6923F41F3323F44073A8682F
:10198800EA681209520442EA002213430B611F4A13
:10199800136843F080631360FEF7E0FD06461B4BB7
:1019A8001B6813F0006F05D1FEF7D8FD801B0228D5
:1019B800F5D90324002C7FF47BAF144A1369A96975
:1019C8000B43136174E7012F0FD01048026922F00E
:1019D800C06222F4FE42A9686B695B08013B5B06A2
:1019E80043EA012313430361D1E70848026922F45B
:1019F800C00222F4FE42A9682B695B08013B5B0523
:101A080043EA012313430361C1E700BF001002400A
:101A1800F8B5554BDB6813F0030F19D0524BDB6850
:101A280003F003030268934204D00124002C48D039
:101A38002046F8BD002A42D04B4BDB68C3F30213A3
:101A480001334268934201D00124EFE70024EDE717
:101A58000368022B18D0032B1DD0012B0DD00124B5
:101A6800002CE3D1404EF26822F073024568013D34
:101A780043EA05131343F360D8E73B4A126812F0B0
:101A8800020F14D00024EBE7374A126812F4806F73
:101A98000FD00024E4E7344A126812F4003F0AD158
:101AA800314A126812F4802F07D00024D8E70124A5
:101AB800D6E70124D4E70024D2E70124D0E70124A3
:101AC800B4E70F460546284A136823F0805313608D
:101AD800FEF744FD0646244B1B6813F0005F05D053
:101AE800FEF73CFD801B0228F5D90324002C9FD16A
:101AF8004FBB1D494B6923F41F3323F44073A86877
:101B0800EA681209520442EA002213434B61164A5A
:101B1800136843F080531360FEF720FD0646124B0E
:101B28001B6813F0005F05D1FEF718FD801B022823
:101B3800F5D90324002C7FF47BAF0B4A53696969FC
:101B48000B43536174E70848426922F0C06222F4EB
:101B5800FE42A9682B695B08013B5B0643EA012347
:101B680013434361D3E700BF001002402DE9F04161
:101B780082B00446036813F4006F2FD0436EB3F5A8
:101B8800800F23D014D9B3F5000F18D0B3F5400F48
:101B980022D10026002E40F09680624AD2F8883082
:101BA80023F44003616E0B43C2F88830374617E0D0
:101BB80093B900210430FFF76BFE0646EAE7594A5D
:101BC800D36843F48033D3600026E3E70021203054
:101BD800FFF71EFF0646DDE70126DBE700273E4646
:101BE800236813F4805F15D0A36EB3F1807F79D09A
:101BF8006BD9B3F1007F6FD0B3F1407F79D1002E5C
:101C080079D1484AD2F8883023F04073A16E0B434B
:101C1800C2F88830236813F4003F00F08C80414BF1
:101C28009B6D13F0805F68D13E4B9A6D42F08052F5
:101C38009A659B6D03F080530193019B4FF0010857
:101C4800394A136843F480731360FEF787FC05462E
:101C5800354B1B6813F4807F05D1FEF77FFC401BD2
:101C68000228F5D90326002E60D12E4BD3F89030E8
:101C780013F4407316D0D4F88420934212D0294A22
:101C8800D2F8903023F44073D2F8901041F48031A8
:101C9800C2F89010D2F8901021F48031C2F8901058
:101CA800C2F8903013F0010F2AD1002E40F0418184
:101CB8001C4AD2F8903023F44073D4F884100B43B4
:101CC800C2F8903033E037468AE793B90021201DE7
:101CD800FFF7DEFD064692E7124AD36843F48033E5
:101CE800D3608CE7002104F12000FFF791FE06463F
:101CF80085E7012683E737468CE74FF000089FE722
:101D0800FEF72CFC0546074BD3F8903013F0020F72
:101D1800CBD1FEF723FC401B41F288339842F2D91D
:101D28000326C2E700100240007000403746B8F1B1
:101D3800000F40F00081236813F0010F08D09D4A7E
:101D4800D2F8883023F00303A16B0B43C2F8883024
:101D5800236813F0020F08D0964AD2F8883023F08F
:101D68000C03E16B0B43C2F88830236813F0040FAF
:101D780008D0904AD2F8883023F03003216C0B4306
:101D8800C2F88830236813F0080F08D0894AD2F8BF
:101D9800883023F0C003616C0B43C2F88830236895
:101DA80013F0100F08D0834AD2F8883023F4407318
:101DB800A16C0B43C2F88830236813F0200F08D0B9
:101DC8007C4AD2F8883023F44063E16C0B43C2F8B4
:101DD8008830236813F4007F08D0764AD2F8883018
:101DE80023F44023E16D0B43C2F88830236813F4D1
:101DF800806F08D06F4AD2F8883023F44013216EE0
:101E08000B43C2F88830236813F0400F08D0694AA2
:101E1800D2F8883023F44053216D0B43C2F8883040
:101E2800236813F0800F08D0624AD2F8883023F470
:101E38004043616D0B43C2F88830236813F4807FF8
:101E480008D05C4AD2F8883023F44033A16D0B43A4
:101E5800C2F88830236813F4005F0FD0554AD2F8CF
:101E6800883023F04063E16E0B43C2F88830E36E9C
:101E7800B3F1006F65D0B3F1806F67D0236813F4B6
:101E8800002F0FD04B4AD2F8883023F04063216FDF
:101E98000B43C2F88830236FB3F1006F5ED0B3F103
:101EA800806F60D0236813F4802F0FD0414AD2F896
:101EB800883023F04063616F0B43C2F88830636F4A
:101EC800B3F1006F57D0B3F1806F59D0236813F482
:101ED800804F0FD0374AD2F8883023F04053A16F93
:101EE8000B43C2F88830A36FB3F1805F50D0B3F1D1
:101EF800005F55D0236813F4004F08D02D4AD2F85C
:101F0800883023F08043E16F0B43C2F888302368A0
:101F180013F4803F09D0274AD2F8883023F00043D1
:101F2800D4F880100B43C2F88830384602B0BDE8B8
:101F3800F0813746FBE61F4A936D23F08053936583
:101F4800F9E6D36843F48013D36097E70121201D95
:101F5800FFF79EFC002891D007468FE7D36843F42B
:101F68008013D3609EE70121201DFFF791FC002814
:101F780098D0074696E7D36843F48013D360A5E763
:101F88000121201DFFF784FC00289FD007469DE70C
:101F98000221201DFFF77CFC0028ABD00746A9E7EB
:101FA800022104F12000FFF733FD0028A2D00746E4
:101FB800A0E700BF001002402DE9784B04460168F5
:101FC80083680269134342691343C269134308686B
:101FD8009F4A024013430B602268536823F440531E
:101FE800E1680B435360A36922689A498A4201D089
:101FF800216A0B43916821F430610B439360236895
:10200800954A934227D0954A934238D0944A9342AE
:102018004ED0944A934261D0934A934274D08D4AE9
:10202800934200F08A8010258A4A934200F0AA80E1
:10203800E369B3F5004F00F02C81082D00F2B78159
:10204800DFE815F076018D019701B501A201B50110
:10205800B501B501AC0102F55842D2F8882002F06A
:102068000302032A09D8DFE802F0020481060125E9
:10207800DAE70425D8E70825D6E71025D4E702F5DE
:10208800E632D2F8882002F00C020C2A0ED8DFE8DB
:1020980002F0070D0D0D090D0D0D6F0D0D0D0B0047
:1020A8000025C1E70425BFE70825BDE71025BBE7E4
:1020B80002F5E432D2F8882002F03002102A09D062
:1020C80005D9202A56D0302A06D10825ACE71AB9F6
:1020D8000025A9E70425A7E71025A5E702F5E232C0
:1020E800D2F8882002F0C002402A09D005D9802AF7
:1020F80042D0C02A06D1082596E71AB9002593E7E9
:10210800042591E710258FE702F5E032D2F8882000
:1021180002F44072B2F5807F0BD007D9B2F5007F88
:102128002CD0B2F5407F06D108257DE71AB90025E5
:102138007AE7042578E7102576E702F5C832D2F861
:10214800882002F44062B2F5806F0BD007D9B2F54F
:10215800006F15D0B2F5406F06D1082564E71AB9AB
:10216800002561E704255FE710255DE702255BE7A9
:10217800022559E7022557E7022555E7022553E7C7
:10218800022551E7082D11D8DFE805F008100510E1
:102198000C1010101300354800260DE0FFF758FB0F
:1021A800002609E0FEF766FF002605E0002001266C
:1021B80002E04FF400400026002800F0CA80626860
:1021C80002EB42039842C0F0F580B0EB023F00F208
:1021D800F380082D5AD8DFE805F005591F59295909
:1021E80059594F00FFF734FB00234FEA10694FEAB3
:1021F80000286268500818EB000B49F1000C58469B
:102208006146FDF7F3FFA0F54072194B9A4200F2C0
:10221800D5802368D8609CE0550800231548002124
:10222800401941F10001FDF7E1FFECE7FEF722FF5D
:1022380000234FEA10694FEA00286268500818EB3B
:10224800000B49F1000C58466146FDF7CFFFDAE76D
:10225800F369FFEF0080004000380140004400406F
:1022680000480040004C0040005000400024F400AA
:10227800FFFC0F00000024F450080021002310F593
:10228800000041F10001FDF7B1FFBCE70126002085
:10229800B9E7082D49D8DFE805F0051E2948344874
:1022A80048483F00FFF7D4FA6268530803EB40033D
:1022B800B3FBF2F39BB20026A3F110014FF6EF72C5
:1022C80091427DD89AB222F00F02C3F3420313431E
:1022D8002268D3603DE0FFF7CBFA6268530803EB4E
:1022E8004003B3FBF2F39BB20026E5E762685308AC
:1022F80003F1F47303F59043B3FBF2F39BB20026AA
:10230800DAE7FEF7B7FE6268530803EB4003B3FB56
:10231800F2F39BB20026CFE76268530803F58033D7
:10232800B3FBF2F39BB20026C6E701260023C3E7FE
:10233800FFF78EFA636800EB5300B0FBF3F080B24E
:102348000026A0F110024FF6EF739A423AD823689C
:10235800D8600023236663663046BDE8788BFFF7B4
:1023680087FA636800EB5300B0FBF3F080B20026F5
:10237800E7E76368580800F5740000F51050B0FBF3
:10238800F3F080B20026DCE7FEF774FE636800EB2A
:102398005300B0FBF3F080B20026D2E76368580818
:1023A80000F50040B0FBF3F080B20026C9E7012633
:1023B8000020C6E70126CCE70126CAE70126C8E7C0
:1023C8000126C6E70126C4E7436A13F0010F06D0C9
:1023D8000268536823F40033816A0B435360436AED
:1023E80013F0020F06D00268536823F48033C16AE1
:1023F8000B435360436A13F0040F06D00268536816
:1024080023F48023016B0B435360436A13F0080FD6
:1024180006D00268536823F40043416B0B435360B2
:10242800436A13F0100F06D00268936823F48053B0
:10243800816B0B439360436A13F0200F06D0026848
:10244800936823F40053C16B0B439360436A13F002
:10245800400F0AD00268536823F48013016C0B43C1
:102468005360036CB3F5801F0BD0436A13F0800FE1
:1024780006D00268536823F40023816C0B43536031
:1024880070470268536823F4C003416C0B435360E0
:10249800EBE72DE9F04105460F4616469846069C9F
:1024A8002B68DB6937EA03030CBF01230023B3421F
:1024B8001ED1B4F1FF3FF3D02CB1FEF74FF8A0EBDB
:1024C80008008442ECD22A68136823F4D07313609E
:1024D8002A68936823F001039360202385F87130FC
:1024E80085F87230002385F870300320BDE8F0814C
:1024F8000020BDE8F0812DE9F04182B01E4690F839
:102508007130DBB2202B04D00223184602B0BDE89C
:10251800F08104460D46904600294ED0002A4ED040
:1025280090F87030012B01D10223EEE7012380F8E7
:10253800703000234367212380F87130FEF70EF8CE
:102548000746A4F85080A4F852800AE023682A7845
:102558001A850135B4F852309BB2013B9BB2A4F8FE
:102568005230B4F852309BB2ABB100963B460022D1
:1025780080212046FFF78DFF18BBA368B3F5805F65
:10258800E4D12369002BE1D1226835F8023BC3F37B
:1025980008031385DEE700963B46002240212046CB
:1025A800FFF777FF034608B10323AEE7202284F83C
:1025B8007120002284F87020A7E70123A5E70123F2
:1025C800A3E70323A1E72DE9F04182B01E4690F866
:1025D8007230DBB2202B03D0022002B0BDE8F081BC
:1025E80004460D46904600296FD0002A6FD090F817
:1025F8007030012B01D10220EFE7012380F8703001
:1026080000234367222380F87230FDF7A7FF0746AF
:10261800A4F85880A4F85A80A368B3F5805F06D060
:10262800A3B9236973B9FF23A4F85C3011E02369C7
:1026380023B940F2FF13A4F85C300AE0FF23A4F8A2
:102648005C3006E07F23A4F85C3002E0B3F1805FE1
:1026580002D0B4F85C8017E023691BB97F23A4F883
:102668005C30F6E73F23A4F85C30F2E723689A8CE5
:102678005FFA88F313402B700135B4F85A309BB2D7
:10268800013B9BB2A4F85A30B4F85A309BB2ABB1B4
:1026980000963B46002220212046FFF7FAFEC0B9EB
:1026A800A368B3F5805FE1D12369002BDED12368ED
:1026B8009B8C08EA030325F8023BDEE7202384F815
:1026C8007230002084F8700087E7012085E7012038
:1026D80083E7032081E730B583B0044600234367CE
:1026E800FDF73CFF054623681B6813F0080F0ED161
:1026F80023681B6813F0040F17D1202384F8713066
:1027080084F87230002084F8700003B030BD6FF098
:102718007E430093034600224FF400112046FFF742
:10272800B8FE0028E4D00320EFE76FF07E43009363
:102738002B4600224FF480012046FFF7AAFE00280E
:10274800DBD00320E1E778B310B5044690F8713088
:102758000BB3242384F871302268136823F0010333
:1027680013602046FFF728FC01281FD0636ABBB915
:102778002268536823F4904353602268936823F0D7
:102788002A0393602268136843F00103136020460C
:10279800FFF7A1FF10BD80F8703000F0A9FBD8E763
:1027A8002046FFF711FEE3E70120704710BD000047
:1027B80000B585B08DF8070000238DF80C308DF832
:1027C8000D308DF80B30124B1B7893B1002301228A
:1027D8000DF10701532000F0C9F801231A460DF145
:1027E8000B01532000F0EAF89DF80B0005B05DF8E6
:1027F80004FBC3B263F07F0304A901F8043D02227D
:10280800012000F0FBF89DF80D308DF80B30EBE758
:102818002400002000B583B00C4B1B7863B18DF801
:1028280004008DF805100123022201A9532000F0AD
:102838009DF803B05DF804FB8DF804008DF80510D1
:10284800022201A9012000F0DBF8F2E724000020B1
:1028580010B50E4B187098B9002301220C49184680
:1028680000F0CAF804460020FFF7A2FFE52800D0D0
:10287800FF24064B02225A7000229A70204610BD8F
:10288800044800F06BF80446EDE700BF2400002080
:1028980040420F00A086010010B504462D20FFF726
:1028A80087FF00F0F70141EAC401C9B22D20FFF704
:1028B800B1FF10BD70B582B006460D4614463223EE
:1028C8008DF8073000230093CDF80330224B1B7896
:1028D8001BB3002301220DF10701532000F046F835
:1028E800012306226946532000F068F89DF801206C
:1028F8009DF8003003EB022333809DF803209DF8F8
:10290800023003EB02232B809DF805209DF804304C
:1029180003EB0223238002B070BD02A9F22301F861
:10292800083D0722012000F069F89DF802209DF873
:10293800013003EB022333809DF804209DF8033017
:1029480003EB02232B809DF806209DF8053003EB4E
:1029580002232380DFE700BF2400002008B50248D7
:10296800FEF790FA08BD00BF9402002070B582B04F
:1029780006460D46144609E00E48FEF783FA20285D
:10298800FAD10C48FEF781FA04280FD142F21073ED
:10299800009323462A4671000648FEF7FDF80028F2
:1029A800EAD05621044800F05BF9E5E7204602B07A
:1029B80070BD00BF940200204030000810B582B0FE
:1029C800144642F21073009313460A464100084821
:1029D800FEF79EF938B90648FEF754FA2028FAD1CE
:1029E800204602B010BD7121024800F039F9F2E723
:1029F80094020020403000080020704700207047F3
:102A08000020704738B5044614B3124D2868124B9D
:102A1800411C821C03EB420203EB410103EB400023
:102A2800FFF748FF2B6803332B60B3F5967F02D27C
:102A3800013CE4B2E8E7013CE4B206E0074A084991
:102A48000848FFF737FF013CE4B2002CF6D138BD47
:102A580038BD00BF300000203800002036000020BC
:102A6800920200203400002038B5184D00242C7044
:102A7800174800F0CDF80120FFF7EAFE2046FFF7DF
:102A88000BFF2C20FFF794FE20F00F0149B241F014
:102A98000A01C9B229702C20FFF7BCFE21462F205D
:102AA800FFF7B8FE21463820FFF7B4FE5921382039
:102AB800FFF7B0FE21462E20FFF7ACFE02212E20A4
:102AC800FFF7A8FE034B1C6038BD00BF2C00002098
:102AD800940200203000002008B50120FFF7DCFE3A
:102AE80008BD000010B58AB02A4BDA6C42F0040227
:102AF800DA64DA6C02F004020192019ADA6C42F0AC
:102B08008002DA64DA6C02F080020292029ADA6CCD
:102B180042F00102DA64DA6C02F001020392039ACD
:102B2800DA6C42F00202DA64DB6C03F0020304930D
:102B3800049B002220214FF09040FDF77BFE4FF4CC
:102B480000530593144B06930024079405A91348D2
:102B5800FDF786FD20230593012306930794089427
:102B680005A94FF09040FDF77BFD4FF40043059316
:102B78000B4B06930223079305A90A48FDF770FD3E
:102B8800224621462820FDF701FD2820FDF730FDCB
:102B98000AB010BD001002400000211000080048D3
:102BA800000011100004004808B51548154B0360D3
:102BB800154B4360002383600122C26003614361B7
:102BC8008361C3610362FDF785FF50B900210C489A
:102BD800FEF75DF950B900210948FEF786F950B9AA
:102BE80008BD4221094800F03BF8EFE749210748B2
:102BF80000F036F8EFE75021044800F031F8EFE72D
:102C080094020020005C0040EC9C901058300008B2
:102C18000268104B9A4200D0704700B587B0032372
:102C28000193122202920122039204930423059332
:102C38000DEB03010848FDF713FD084B9A6D42F4AC
:102C480000029A659B6D03F400030093009B07B094
:102C58005DF804FB005C00400008004800100240DA
:102C6800FEE7000000B5B9B0022327934FF4807245
:102C78002A9210222B9231933293012233920A2204
:102C88003492072235923693379327A8FEF772FAC3
:102C980078BB0F23229303232393002324932593A4
:102CA8002693042122A8FEF725FD30BB4FF481733B
:102CB800009300230F9316936846FEF757FF00BB57
:102CC8004FF40070FEF746F9F8B9FEF7BBFD114B5B
:102CD800A3FB00308009FDF797FC0420FDF7AAFC50
:102CE800002211464FF0FF30FDF750FC39B05DF877
:102CF80004FBA3210848FFF7B3FFB1210648FFF7FB
:102D0800AFFFB9210448FFF7ABFFC0210248FFF726
:102D1800A7FF00BFD34D62106830000808B5FDF763
:102D280003FCFFF79FFFFFF7DDFE00F0C1F8FFF798
:102D38003BFF184C184B012221461848FFF743FC6B
:102D48002378732B00D0FEE7FFF78EFEFFF7C4FE53
:102D58000A22134BA3F858222820FDF749FC114BEF
:102D68001B78012BFBD100220E4B1A701920FFF79C
:102D780049FE0D4B1B68B3F5967FF0D34FF6FF73F2
:102D88004FF4167206490548FFF7B5FB0022064BBB
:102D98001A60E4E7E0020020A0860100E4020020B7
:102DA80038000020270000203000002000B583B044
:102DB800214B1A6E42F001021A661A6E02F00102E5
:102DC8000092009A9A6D42F080529A659B6D03F0CA
:102DD80080530193019B0320FDF7C6FB0022114697
:102DE8006FF00B00FDF7D2FB002211466FF00A00CE
:102DF800FDF7CCFB002211466FF00900FDF7C6FB7A
:102E0800002211466FF00400FDF7C0FB00221146B6
:102E18006FF00300FDF7BAFB002211466FF00100C6
:102E2800FDF7B4FB002211464FF0FF30FDF7AEFB73
:102E380003B05DF804FB00BF0010024008B5FDF7C1
:102E480085FBFDF708FC08BD08B50122054B1A7083
:102E58004FF40050FDF7F4FC4FF40040FDF7F0FC90
:102E680008BD00BF270000200F49D1F8883043F47F
:102E78007003C1F888300D4B1A6842F001021A60DD
:102E8800002098601A6822F0A85222F410221A60D2
:102E98004FF48052DA601A6822F480221A6098612E
:102EA8004FF000638B60704700ED00E000100240B7
:102EB80008B50C480C4B03604FF4E1334360002322
:102EC8008360C36003610C2242618361C361036252
:102ED8004362FFF738FC00B908BD44210348FFF7F7
:102EE800BFFEF9E7E4020020004400408C300008EF
:102EF8000268114B9A4200D0704700B587B003F5BD
:102F0800E6339A6D42F400329A659B6D03F4003300
:102F18000093009B0C230193022302930023039345
:102F2800032304930723059301A94FF09040FDF76D
:102F380097FB07B05DF804FB00440040DFF834D08D
:102F4800002103E00C4B5B58435004310B480C4BF9
:102F580042189A42F6D30B4A02E0002342F8043B97
:102F6800094B9A42F9D3FFF77FFF00F011F8FFF7FA
:102F7800D5FEFEE700800120B830000800000020E0
:102F880008000020080000205C030020FEE7000085
:102F980070B50D4E0D4CA41BA4100025A54209D1F7
:102FA8000B4E0C4C00F018F8A41BA4100025A542E9
:102FB80005D170BD56F8253098470135EEE756F82B
:102FC800253098470135F2E7A8300008A8300008F6
:102FD800A8300008AC300008F8B500BFF8BC08BC41
:102FE8009E467047F8B500BFF8BC08BC9E467047BF
:102FF800A0860100400D0300801A060000350C0071
:1030080040420F0080841E0000093D0000127A0033
:103018000024F40000366E010048E801006CDC0270
:103028000000000000000000010203040607080970
:1030380000000000010203042E2E2F5372632F4359
:103048006F6D6D756E69636174696F6E2E630000D4
:103058002E2E2F5372632F6932632E6300000000F7
:103068002E2E2F5372632F6D61696E2E6300000040
:1030780048656C6C6F204E75636C656F2046756E85
:10308800210A0D002E2E2F5372632F7573617274EF
:083098002E630000000000009F
:0830A00084D1FF7F0100000054
:0830A800AD010008000000006A
:0830B000890100080000000086
:0830B80000093D0000000000CA
:0400000508002F457B
:00000001FF
